:020000040800F2
:100000008807002041020008192600081B26000866
:100010001D2600081F2600082126000800000000F9
:10002000000000000000000000000000232600087F
:100030002526000800000000272600082B260008BF
:100040005B0200085B0200085B0200085B0200081C
:100050005B0200085B020008432400085B240008E0
:10006000732400088B240008A32400085B02000806
:100070005B0200085B0200085B0200085B020008EC
:100080005B0200085B0200085B0200080000000041
:10009000000000000000000000000000BB24000879
:1000A0005B0200085B0200085B0200085B020008BC
:1000B0005B0200085B0200085B0200085B020008AC
:1000C0005B0200085B0200085B0200085B0200089C
:1000D0005B020008551F0008671F000800000000B1
:1000E0000D2500085B0200085B020008000000000C
:1000F0000000000000000000000000005B0200089B
:10010000000000005B0200085B0200085B020008C0
:1001100000000000000000000000000000000000DF
:100120005B0200085B0200085B0200085B0200083B
:100130005B0200080000000000000000000000005A
:100140000000000000000000000000005B0200084A
:100150005B0200085B0200085B0200087F1F0008CA
:100160005B0200085B0200080000000000000000C5
:10017000000000000000000000000000000000007F
:10018000000000005B02000800000000000000000A
:100190005B0200085B02000800F002F800F040F883
:1001A0000AA090E8000C82448344AAF10107DA45D2
:1001B00001D100F035F8AFF2090EBAE80F0013F0E4
:1001C000010F18BFFB1A43F001031847582800001D
:1001D00078280000103A24BF78C878C1FAD85207AE
:1001E00024BF30C830C144BF04680C6070470000B1
:1001F0000023002400250026103A28BF78C1FBD830
:10020000520728BF30C148BF0B6070471FB502F0CE
:1002100003FC9DE8030002F021FB1FBD10B510BDDB
:1002200002F078FB1146FFF7F1FF02F0A9F902F0A6
:1002300096FB03B4FFF7F2FF03BC02F0C7FB00001C
:100240000948804709480047FEE7FEE7FEE7FEE76A
:10025000FEE7FEE7FEE7FEE7FEE7FEE704480549A6
:10026000054A064B70470000352600089901000832
:1002700088010020880700208803002088030020D0
:100280002849084328490860704730B50F23C278D1
:1002900001780125FAB1244A126801F1E02102F443
:1002A000E062C2F5E062C2F30722C2F10404D34067
:1002B0004278A24084781C401443220181F8002433
:1002C000007800F01F018D404009800000F1E0201F
:1002D000C0F8005130BD01F01F0085404809800082
:1002E00000F1E020C0F8805130BD104A11400143B8
:1002F0000D48001F016070470B4A121D002911684C
:1003000001D0014300E08143116070474FF0E021CC
:100310000428086903D020F004000861704740F009
:100320000400FAE70000FA050CED00E080FFFF1F73
:10033000FA48016841F001010160F84A00210832E1
:1003400011600268F64B1A400260031DF54A1A60FC
:10035000F24BF54A84331A60026822F4802202606C
:10036000EE480C300160ED488C3001607047EB497D
:100370000022891C0A70087070470246002051094B
:1003800001290CD002290CD0E4497431096802F02B
:100390001F02012393400B4200D001207047DF4928
:1003A000F4E7DE497031F1E718B500204FF4A044BE
:1003B00000903120FFF7E1FF0099491C0091A14214
:1003C00001D00028F5D03120FFF7D7FF002800D05A
:1003D000012018BDD14A116821F0F80141EAC0009E
:1003E00010607047D14908607047CC4900227031D5
:1003F0000A700A70012802D0042801D10520087073
:100400007047CB490860704741EA82115A0810B51D
:10041000C84B029C03EB02421143014341EA0460D2
:10042000BE49091D086010BDC049086670478001BB
:1004300040EA0170B9491043843108607047BB49F4
:1004400088667047800140EA0160B44940EA027062
:10045000883108607047B54908677047B349C86478
:100460007047AE4B08331A68084322F0EC62104321
:1004700018607047A94B08331A68084322F0784285
:10048000104318607047A54A0832116821F0030133
:10049000014311607047A1480830006800F00C006B
:1004A00070479E4A0832116821F0F0010143116043
:1004B00070479A4A0832116821F4E05101431160F3
:1004C0007047964A0832116821F4604141EAC00041
:1004D0001060704770B5914B08331968964C11F055
:1004E0000C0104D0954E042903D0082903D00460E0
:1004F0001BE0066019E0894A121D1168C1F380559E
:10050000116801F03F0115B1B6FBF1F101E0B4FB58
:10051000F1F114681268C4F388146143C2F3014214
:10052000521C5200B1FBF2F1016019680F2202EA7D
:100530001111834A545C0168E14041601C68072541
:1005400005EA9424145D21FA04F484601B6805EA2A
:100550005333D25CD140C16070BDC0F30121032987
:1005600008D16E4B08331968764A21F4F81102401D
:100570000A431A60694970310A68C0F30B000243EC
:100580000A6070476A4944390860704768494039D1
:10059000086070476549C1F85C0170475F4A8C325A
:1005A0001168401E21F01F010143116070475B4A32
:1005B0008C3211686FF0FF0321F4F85103EB002037
:1005C000084310607047554A8C32116821F440315D
:1005D0000143116070475C49C1F8E00170474F4A20
:1005E00030320029116801D0014300E081431160DD
:1005F00070474A4A34320029116801D0014300E0B3
:10060000814311607047454A40320029116801D08A
:10061000014300E0814311607047404A44320029A1
:10062000116801D0014300E08143116070473B4AEB
:1006300010320029116801D0014300E081431160AC
:100640007047364A14320029116801D0014300E096
:10065000814311607047314A20320029116801D06E
:10066000014300E08143116070472C4A2432002985
:10067000116801D0014300E0814311607047274AAF
:1006800050320029116801D0014300E0814311601C
:100690007047224A54320029116801D0014300E01A
:1006A0008143116070471D4A60320029116801D0F2
:1006B000014300E0814311607047184A6432002909
:1006C000116801D0014300E0814311607047134974
:1006D00070310128086803D020F0080008607047D6
:1006E00040F00800FAE70D4A0D320029117801D0D8
:1006F000014300E08143117070470848743001687D
:1007000041F08071016070470146044A00200C32BC
:1007100012680A4200D001207047000000380240F1
:10072000FFFFF6EA103000240030002000004742AE
:10073000800E47420000FFFF0024F40040787D0156
:1007400000000020FFFCFF0F001047420149087025
:10075000E2E700000E380240C14910B5884202D1DC
:100760000121841424E0BF49884202D101210414EC
:1007700004E0BD4988420AD10121C4132046FFF795
:100780006AFF2046BDE810400021FFF764BFB7496B
:10079000884202D1012144140AE0B549884202D1BD
:1007A00001210C0504E0B34988420AD101214C051E
:1007B0002046FFF75AFF2046BDE810400021FFF712
:1007C00054BF10BD30B502884C8802F441530A88EA
:1007D000CD8822438C882C4322430C8922434C89A8
:1007E00022438C892243CC8922431A430280828B84
:1007F00022F400628283098A018230BDF0B50222B0
:100800000023858B01244FF2400635408583028406
:10081000868B8D68022D3DD08A8802B10224964ACB
:1008200013681B0203D5136823F400031360924A74
:100830007C3213681268C3F388138F4FC2F30272BD
:100840003F1F3D683F6805F03F057F0201D58B4F94
:1008500000E08B4FB7FBF5F55D43B5FBF2F2CB88BB
:10086000B3F5007F2BD06301B2FBF3F202EB8202FF
:100870008B685200B2FBF3F2521D92B20A23B2FB14
:10088000F3F202F00103D21A4FF6FF74C2F34F02E3
:1008900004EA0323941EFE2C01D302220023CC88F9
:1008A0001A43144304840A884B881A438B88898925
:1008B0000B431A43324342F400618183F0BD120AB4
:1008C000D4E70021018041808180C1800181418184
:1008D0008181C1810721018270470021018041800F
:1008E0008180C18002228260818170470029018855
:1008F00002D041F0400101E021F040010180704749
:100900000029818B02D041F4806101E021F48061F3
:1009100081837047028822F40062028002880A43C1
:1009200002807047B1F5804F018803D021F48041E7
:100930000180704741F48041FAE7A1F57E420188C9
:10094000FF3A02D041F4807101E021F4807101800E
:1009500070470029818802D041F0040101E021F0B4
:100960000401818070470029818802D041F0100184
:1009700001E021F010018180704730B5828B0023A7
:100980004FF240042240828302220284848B0A8830
:100990004FF48075B2F5007F00D002B92B464A882B
:1009A0008D8889892A4319430A43224342F400610E
:1009B000818330BD8089704781817047002901881B
:1009C00002D041F4005101E021F400510180704750
:1009D000018841F4805101807047012901D0008BCA
:1009E0007047808A7047008A7047002A828801D049
:1009F0000A4300E08A4382807047090901238B4043
:100A0000002A828899B201D00A4300E08A4382809A
:100A100070470246002012890A4200D00120704728
:100A2000C9430181704730B501F00F03012502462B
:100A300005FA03F40020A3B2090905FA01F491882C
:100A4000A4B2128921401A4202D0002900D001200C
:100A500030BD01F00F0201219140C943018170476F
:100A60000030014000380040003C004000340140AC
:100A700000500140005401400838024040787D0198
:100A80000024F400CD4910B5884206D10121102080
:100A9000FFF7EBFD0021102020E0C949884202D178
:100AA00001214C0429E0C749884202D101218C046C
:100AB00023E0C549884202D10121CC041DE0C3498D
:100AC000884202D101210C0517E0C149884209D1B1
:100AD00001212020FFF7C9FD00212020BDE81040A2
:100AE000FFF7C3BDBB49884202D101218C0704E056
:100AF000B94988420AD1012144052046FFF7ABFDE0
:100B00002046BDE810400021FFF7A5BD10BD7FB510
:100B10000446008A0D46C98820F4405001432182D2
:100B2000A08941F20C618843A9882A8911436A8906
:100B300002431143A181A08A20F44071A88908438F
:100B4000A0826846FFF7C6FC9C48844202D0A048B9
:100B5000844201D1039800E00298A189090400EBC6
:100B6000C00101EB0010296801D5490000E08900AF
:100B7000B0FBF1F06422B0FBF2F109010B096FF058
:100B800018056B4300EB8300A3891D044FF032036B
:100B900006D503EBC000B0FBF2F000F0070005E063
:100BA00003EB0010B0FBF2F000F00F0008432081CF
:100BB0007FBD4FF41651016000218180C180018109
:100BC0000C2242818181704710B5028A4C8822F440
:100BD00070630A8822438C88C9880C4322431A43D5
:100BE000028210BD0021018041808180C180704758
:100BF0000029818902D041F4005101E021F4005123
:100C000081817047028B02F47F420283028B0A4388
:100C1000028370470029818902D041F4004101E03C
:100C2000C1F30E01818170470029818A02D041F40D
:100C3000006101E021F4006181827047C1F3080185
:100C4000818070478088C0F308007047028A22F0D4
:100C50000F020282028A0A430282704700298189B8
:100C600002D041F0020101E021F0020181817047D0
:100C7000828922F40062828182890A4382817047DC
:100C8000028A22F020020282028A0A43028270470C
:100C90000029018A02D041F4804101E021F4804121
:100CA00001827047818941F00101818170470029EB
:100CB000818A02D041F0080101E021F0080181821F
:100CC0007047028BD2B20283028B42EA0121018378
:100CD00070470029818A02D041F0200101E021F013
:100CE0002001818270470029818A02D041F01001E1
:100CF00001E021F0100181827047828A22F0040213
:100D00008282828A0A43828270470029818A02D0C5
:100D100041F0020101E021F0020181827047002AC6
:100D2000828A01D00A4300E08A438282704710B56C
:100D3000C1F3421301F01F040121A140012B07D090
:100D4000022B07D01430002A026805D00A4304E0C1
:100D50000C30F8E71030F6E78A43026010BD024617
:100D6000002012880A4200D001207047C943018048
:100D7000704770B501F01F0501260024C1F342132E
:100D800006FA05F2012B0FD0022B0FD0838A4FEA0F
:100D900011210088134206FA01F600EA060001D08C
:100DA00000B10124204670BD8389F0E7038AEEE795
:100DB0000A0A01219140C943018070470010014097
:100DC0000044004000480040004C004000500040FB
:100DD0000014014000780040007C004070B55A4883
:100DE0004168491C4160816811B18168491E816078
:100DF000AFF300800024554E18E006EB84056868C8
:100E000090B1017B81B1826872B1521E82606968C3
:100E10000AD148690969884768680168816068681B
:100E2000416809B900210173641CE4B23078A04222
:100E3000E3D870BD464801684FF47A70B1FBF0F01A
:100E4000401EB0F1807F12D24FF0E0225061414B42
:100E5000F02083F8140D00209061072010613E48B7
:100E6000B1FBF0F13848C160012101707047FEE725
:100E700035480078002805D04FF0E020016941F0A6
:100E80000201016170474FF0E020016921F0020189
:100E9000016170472DE9F0472C4C0546DDF82090A4
:100EA00020781E4617468846052802D30020BDE854
:100EB000F087182001F05CFC0028F8D00560C0E93C
:100EC00001850773C0E90469217804EB810148605A
:100ED0002178491C2170EAE71C4B30B400211A78B4
:100EE00006E003EB81046468844203D0491CC9B264
:100EF0008A42F6D88A4218D003EB81004068EFF3AB
:100F0000108472B605E003EB8102491C9568C9B2F2
:100F100055601A78521E8A42F5DC1978491E1970FC
:100F200004B962B630BC01F052BC30BC704700213D
:100F30000173704701210173704701688160704738
:100F40004160704701607047100000207800002069
:100F5000640000200FE000E0C0C62D001CB500209A
:100F60000321CDE900011B4C03460122202120462C
:100F700001F06AF8202161831CBD1CB5002101200D
:100F80000B460A46CDE900014103134801F05CF825
:100F90001CBD1148103000688104104805D4017848
:100FA00029B9012101700846704700210170002015
:100FB00070470948103000688104084805D5017859
:100FC00029B100210170012070470121017000202A
:100FD000704700000000024000080240200000208E
:100FE0000288520601D40020704702899207FCD083
:100FF00002891206F9D4818101898907FCD001890F
:101000000906F9D48089C0B270472DE9FC4100245B
:1010100001252E0323462A463146FE4FCDE90054D2
:10102000384601F011F8CDE90054012214020023E2
:101030002146F94801F008F83E83F7481A30048049
:10104000BDE8FC812DE9F041F24D4FF480540E468D
:101050006C8300F01F00F14F40F020013846FFF78D
:10106000BFFF31463846FFF7BBFF2C83BDE8F08158
:1010700070B5E9484FF480761A300680E54C851447
:101080006583E221E548FFF7ABFF25837021072048
:10109000FFF7D8FF0B210020FFF7D4FFDE48183000
:1010A000068070BDDE4B0A460021D8709A7010B1E0
:1010B000022802D002E0082100E02021032A04D007
:1010C000022A05D0012A06D007E041F0060104E01B
:1010D00041F0040101E041F002010620B2E77D2861
:1010E00007D8CF494A78824203D04870014605208C
:1010F000A8E770472DE9F041C64D4FF480541646DD
:1011000088466C8300F01F00C44F40F02001384631
:10111000FFF766FF32464146384600F080FC2C83DC
:10112000A4E71CB508210020FFF78CFF3F21012018
:10113000FFF788FF03210220FFF784FF0321084601
:10114000FFF780FF03210420FFF77CFF0221052029
:10115000FFF778FF0E210620FFF774FF0E2107200E
:10116000FFF770FF00210820FFF76CFF0021092026
:10117000FFF768FFE7248DF800408DF801408DF8F7
:1011800002408DF803408DF80440052269460A208C
:10119000FFF7B0FFC2208DF800008DF801008DF838
:1011A00002008DF803008DF80400052269460B202B
:1011B000FFF7A0FFC3210C20FFF744FFC4210D203F
:1011C000FFF740FFC5210E20FFF73CFFC6210F208F
:1011D000FFF738FF8DF800408DF801408DF8024090
:1011E0008DF803408DF80440052269461020FFF772
:1011F00081FF00211120FFF725FF00211220FFF7BA
:1012000021FF00211320FFF71DFF00211420FFF70D
:1012100019FF00211520FFF715FF00211620FFF709
:1012200011FF11211720FFF70DFF00211C20FFF7F0
:1012300009FF00211D20FFF705FF1CBD2DE9F0412E
:101240000D460746FFF7E1FE744E0121304600F0DF
:10125000A4FA202D00D92025002F53D00020704C57
:10126000607025700320A0700020E070FFF759FF28
:101270003846FFF734FF21781120FFF7E3FE21788D
:101280001220FFF7DFFE21781320FFF7DBFE217825
:101290001420FFF7D7FE21781520FFF7D3FE217821
:1012A0001620FFF7CFFEA178E078FFF7FBFE0821BC
:1012B0000020FFF7C7FE3F210120FFF7C3FE3F21BB
:1012C0000220FFF7BFFE4F210420FFF7BBFE0021E5
:1012D0001C20FFF7B7FE4F4D4FF480546C83E12183
:1012E0003046FFF77DFE2C836C83E2213046FFF70A
:1012F00077FE2C8370210720FFF7A4FEFFF7B8FECE
:101300000120B3E60120AAE7434A10B51A324FF490
:1013100080741480014605220B20FFF7EBFE3E4847
:101320001830048010BD10B50446014605220A207D
:10133000FFF7E0FE21460522BDE810401020D9E667
:1013400070B5344D4FF480546C83344E00F01F015F
:101350003046FFF745FEFF213046FFF741FE2C8364
:1013600070BD70B514460D460646FFF7E9FF01460D
:101370000120A84014B10843C1B200E081433046C7
:10138000BDE870405EE610B50C46FFF7D9FF0121BD
:10139000A140014201D1002010BD012010BD2DE966
:1013A000F0411C4D4FF48054164688466C831B4F09
:1013B00000F01F013846FFF713FE3346FF22414677
:1013C000384600F045FB2C8350E610B5702107200D
:1013D000FFF738FE0A21BDE81040002032E60E4932
:1013E0004FF480701A310880002201211046B8E7BE
:1013F0002DE9F04781460A484FF480770678064881
:101400001A300780FFF7E1FF024D3C016C83E121B8
:1014100008E0000000000240000C0240003C0040D8
:1014200021000020DFF8BC804046FFF7D9FD2C8367
:101430006C83A0214046FFF7D3FD32464946404623
:1014400000F0EDFA2C8328480780BDE8F0872DE9ED
:10145000F041264E4FF4805504467583214F61219B
:101460003846FFF7BDFD224822461146037838462C
:1014700000F0BBFA3583BDE8F04140210720E1E5EB
:1014800010B51720FFF75CFF00F0010010BD70B52C
:10149000164D4FF480546C83FF211248FFF7A0FDD6
:1014A0002C8370BD10B5FFF7F2FF400604D4FFF7A0
:1014B000E7FF08B1002010BD012010BD10B5FFF7F7
:1014C000E6FF810601D5012010BDC00601D5002030
:1014D00010BDFF2010BD10B50820FFF731FF00F050
:1014E0000F0010BD003C0040180C024000000240FC
:1014F0002100002070471CB530B1032803D105211D
:10150000FE48FFF7F7FF1CBD05210320CDE90001D0
:1015100000231A464FF4E041F94800F0A6FD1CBD37
:101520007CB50525F74E032440B101280CD00328D3
:1015300003D10521F448FFF7DDFF7CBD00231A46E7
:101540004FF4607130460CE000231A464FF40061FE
:101550003046CDE9004500F088FD0023EB481A46EF
:10156000C021CDE9004500F080FD7CBD1CB5052201
:10157000E74C032140B101280CD0032803D10521F9
:10158000E448FFF7B7FF1CBDCDE9001200231A465F
:10159000642105E0CDE9001200231A464FF4E04132
:1015A000204600F062FD1CBD1CB50622032140B19F
:1015B00001280DD0032803D10621D748FFF79AFF51
:1015C0001CBDCDE9001200231A463821D34806E09D
:1015D000CDE9001200231A464FF4E051D04800F044
:1015E00044FD1CBD7CB50525CC4E032450B101281B
:1015F00016D002281AD0032803D10521C948FFF7C5
:1016000079FF7CBD00231A464FF480613046CDE956
:10161000004500F02AFD00231A460C21C04809E0CD
:1016200000231A464FF46041304603E00023BE48D1
:101630001A460D21CDE9004500F017FD7CBD1CB513
:101640000522032140B101280DD0032803D1052133
:10165000B648FFF74FFF1CBDCDE9001200231A4624
:10166000E021B34805E0CDE9001200231A463821F5
:10167000AA4800F0FAFC1CBD2DE9FF4F85B00446D6
:10168000DDE912BA994616466846FFF71AF9A748E7
:10169000A84F0025844208D1386840F48050386053
:1016A0000698FFF7CCFFADF804509E48DFF884821F
:1016B0008442A8F104080AD1D8F8001041F480410E
:1016C000C8F800100698FFF78DFFADF80450924857
:1016D00084420AD1D8F8001041F40041C8F8001043
:1016E0000698FFF761FFADF804508A48844208D19C
:1016F000386840F4005038600698FFF737FFADF8BF
:1017000004508148844208D1386840F48010386021
:101710000698FFF705FFADF804507848844208D1D9
:10172000386840F4001038600698FFF7E4FEADF822
:101730000450ADF80C90ADF800504FF40070ADF8C7
:101740000EA0ADF802B0ADF80A0046B10121012E9D
:1017500008D00220022E08D0032E0BD00EE0ADF8E8
:10176000065004E0ADF8065006E0ADF80600ADF80E
:10177000085003E0ADF80600ADF80810208820F00E
:101780004000208069462046FFF71CF8208840F082
:101790004000208009B0BDE8F08F2DE9FC410446EF
:1017A000624800250F464FF48276844205D1CDE988
:1017B000006520230022FFF75FFF5A48844206D1CC
:1017C000CDE90065202300223946FFF755FF524836
:1017D000844206D1CDE90065202300223946FFF777
:1017E0004BFF4C48844206D1CDE9006520230022FE
:1017F0003946FFF741FF4448844206D1CDE90065F0
:10180000202300223946FFF737FF3C48844206D1A7
:10181000CDE90065202300223946FFF72DFFBDE802
:10182000FC812DE9FC4104464048002517468846C6
:101830004FF48276844204D1CDE900652023FFF77E
:101840001BFF3848844206D1CDE9006520233A4683
:101850004146FFF711FF3048844206D1CDE90065CB
:1018600020233A464146FFF707FF2A48844206D123
:10187000CDE9006520233A464146FFF7FDFE2248A8
:10188000844206D1CDE9006520233A464146FFF760
:10189000F3FE1A488442C2D1CDE9006520233A46BE
:1018A0004146FFF7E9FEBAE72DE9FC470446DDE9CA
:1018B0000A651E481F4690468946844205D1CDE9F7
:1018C000006513463A46FFF7D7FE1648844206D114
:1018D000CDE9006543463A464946FFF7CDFE0E483E
:1018E000844206D1CDE9006543463A464946FFF7B2
:1018F000C3FE0848844225D143461DE00054014000
:10190000001802400014024000500140001C024038
:101910000010024000340140003C0040000402403E
:101920000008024000380040002002400030014022
:101930000000024044380240CDE900653A4649467D
:10194000FFF79AFE7748844206D1CDE90065434609
:101950003A464946FFF790FE7348844206D1CDE9E6
:10196000006543463A464946FFF786FEBDE8FC87D8
:101970007FB50D00044620D06846FEF7ABFD6B48EE
:10198000844208D06A48844205D06648844202D026
:101990006548844201D1039900E0029900200124A6
:1019A000421C04FA02F3B1FBF3F3AB4202D8C000CD
:1019B00004B070BDD0B20828F2D33820F8E702880E
:1019C0000388C2F3C02223F0400303800129018869
:1019D00008D021F400610180018841F040010180BC
:1019E0001046704741F40061F5E730B5048864069D
:1019F00014D50489A407FCD004892406F9D4002452
:101A00000AE00D5D85810589AD07FCD005892D06AD
:101A1000F9D485891555641C9C42F2D330BD10B5AC
:101A200003885B0613D503899B07FCD003891B063B
:101A3000F9D4002309E0CC5C84810489A407FCD09C
:101A400004892406F9D484895B1C9342F3D310BD26
:101A500030B50488640613D50489A407FCD0048932
:101A60002406F9D4002409E082810589AD07FCD061
:101A700005892D06F9D485890D55641C9C42F3D344
:101A800030BD30B50488640616D50489A407FCD09F
:101A900004892406F9D400240CE031F8145085811F
:101AA0000589AD07FCD005892D06F9D4858922F872
:101AB0001450641C9C42F0D330BD10B503885B0603
:101AC00014D503899B07FCD003891B06F9D4002396
:101AD0000AE031F8134084810489A407FCD004890A
:101AE0002406F9D484895B1C9342F2D310BD30B52F
:101AF0000488640614D50489A407FCD0048924064C
:101B0000F9D400240AE082810589AD07FCD005895B
:101B10002D06F9D4858921F81450641C9C42F2D317
:101B200030BD000000500140005401400030014031
:101B300000340140FD4A0146904200D10020FC4A99
:101B4000914200D10120FB4A914200D1062070470A
:101B500070471CB50822032140B101280DD003288D
:101B600003D10821F348FFF7F3FF1CBDCDE90012B4
:101B700001230022C021F04806E0CDE90012012334
:101B800000224FF48441ED4800F06FFA1CBD1CB5F3
:101B90000722032140B101280DD0032803D10721DA
:101BA000E348FFF7D5FF1CBDCDE900120123002259
:101BB0000C21E34805E0CDE9001201230022602159
:101BC000E04800F052FA1CBD1CB50722032140B1C9
:101BD00001280ED0032803D10721D448FFF7B8FF0E
:101BE0001CBDCDE90012012300224FF4C061D4488E
:101BF00005E0CDE9001201230022C021D24800F007
:101C000034FA1CBDC94A0146904200D1CF48C84AA7
:101C1000914201D1CD481030C64A914201D1CB4802
:101C2000203070472DE9FF4F87B09946DDE916B7A0
:101C3000DDE914A813460446FFF7E4FF0546BB4858
:101C4000C34E0093844209D1306840F010003060E8
:101C50000898FFF7B9FF25208DF81000B44884429A
:101C60000BD1BB48001F016841F4003101600898A6
:101C7000FFF78DFF26208DF81000AE48844209D171
:101C8000306840F0200030600898FFF762FF47207E
:101C90008DF810002046FEF7F5FE01268DF8136042
:101CA00006208DF811002046FFF744FF8DF8120042
:101CB00004A8FEF7EAFAADF80AA0ADF806B0ADF850
:101CC0000C90ADF80880ADF804700020287340F641
:101CD000FF700590411E059101D30846FAE7694659
:101CE0002046FEF714FFA08940F02000A0812E734B
:101CF000A08940F40050A0810BB0BDE8F08F2DE921
:101D0000FF410446894800250C2617468846844230
:101D100006D1CDE90065029500230395FFF782FF08
:101D20008348844208D1CDE90065029500233A46F4
:101D300041460395FFF776FF7E48844208D1CDE9FE
:101D40000065029500233A4641460395FFF76AFF76
:101D5000BDE8FF812DE9FF470446744800250C26A5
:101D60001F4690468946844205D1CDE9006502951B
:101D70000395FFF757FF6E48844208D1CDE900650F
:101D800002953B46424649460395FFF74BFF69489B
:101D9000844208D1CDE9006502953B46424649465A
:101DA0000395FFF73FFFBDE8FF8710B50023FFF75E
:101DB00029FFC18819B902894489A2420DD04289FC
:101DC00083889A4201D100224281036892B29B56D5
:101DD000521C428109B1491EC180D8B210BD10B554
:101DE0000C46FFF70FFFC38842890DE081889142BE
:101DF00000D100220168895CA14201D1012010BDFF
:101E0000521C5B1E92B29BB2002BEFD1002010BD82
:101E1000F0B516460F4684460024FFF7F3FE05464C
:101E2000C08840B1697B6046FFF7D9FF78B9E88880
:101E3000A98888420BD00020F0BD6046FFF7B5FFAF
:101E40003855697B884205D0641CA4B200E0761E38
:101E5000B442F2DB0021641CA0B23954F0BD00B5DD
:101E6000FFF7D0FEC18829B901894089814201D19B
:101E7000012000BD002000BD00B5FFF7C3FEC188F2
:101E80008088814201D1012000BD002000BD00B545
:101E9000FFF7B8FE0021C1800181418100BD00B57E
:101EA0000B46FFF7AFFE437300BD10B50C4603466B
:101EB000FFF7A8FE007B00280BD007E01988090671
:101EC000FCD59880641C18880006FCD52078002872
:101ED000F4D110BD70B515460E460446FFF792FECC
:101EE000007B00280DD0002309E020880006FCD5E7
:101EF000F05CA08020880006FCD55B1C9BB2AB4246
:101F0000F3D370BDC388828893420DD20389934274
:101F100001D10022028103890268D1540189491C40
:101F20000181C188491CC180704700000010014038
:101F30000044004000140140000802400018024024
:101F400000000240000C0240000402402800002073
:101F500044380240104801888906E5D58088C1B21E
:101F60000E48CFE7E0E70E4800888006DCD50C4835
:101F7000001D0088C1B209481030C3E7D4E7094802
:101F800000888006D0D50748001D0088C1B20348EC
:101F90002030B7E7C8E7000000100140280000200B
:101FA0000044004000140140A3490844C0F38F20BE
:101FB00070472DE9F04F9A46DDE909B88946034696
:101FC000FFF7F2FFC5B200204FF0030E0121814060
:101FD00011EA090F28D0994E36F815400C4326F81F
:101FE0001540DF6844000EFA04F6B7430BFA04FC10
:101FF00047EA0C07DF601F6802FA04FCB74347EAB0
:102000000C071F60012A01D0022A0DD15F6889B236
:102010008F430AFA00F189B20F435F60996808FAAA
:1020200004F4B14321439960401CC0B21028CDD3C1
:10203000BDE8F08F00B5FFF7B7FF01218140804870
:1020400002681143016000BDFCB51646DDE907C515
:102050000C00074608D0FFF7EDFFCDE900C532467A
:1020600021463846FFF7A5FFFCBD2DE9FC4F9946F8
:10207000DDE90BB792460D00064622D0FFF7DAFFE6
:10208000002201214FF00F0C01FA02F028420DD07E
:10209000D00806EB8003186A5407E40E0CFA04F823
:1020A00020EA080007FA04F420431862521C102AA0
:1020B000EAD3CDE9009B5346022229463046FFF77A
:1020C00078FFBDE8FC8FF0B50E460546FFF76CFFC4
:1020D00000225A49C4B24FF0010C03270CFA02F354
:1020E00033420CD028684FEA420E07FA0EFE40EA4F
:1020F0000E00286031F81400984321F81400521C97
:10210000D2B2102AEAD3F0BDF0B500220125032691
:1021100005FA02F30B4205D00468570006FA07F3EC
:102120009C430460521CD2B2102AF1D3F0BDF0B52A
:1021300000220127032607FA02F33C460B4208D08F
:102140000568530006FA03FC25EA0C059C4025436C
:102150000560521CD2B2102AEDD3F0BDF0B50022BA
:102160000125032605FA02F30B4205D00468570047
:1021700006FA07F31C430460521CD2B2102AF1D3B2
:10218000F0BDF0B5002201260324022706FA02F36F
:102190000B4209D00568530004FA03FC25EA0C053C
:1021A00007FA03F31D430560521CD2B2102AEDD387
:1021B000F0BDF0B500230127032507FA03F40C4214
:1021C00009D0C6685C0005FA04FC26EA0C0602FA8F
:1021D00004F42643C6605B1CDBB2102BEDD3F0BDCC
:1021E00041F48032C261C161C261C169C069704796
:1021F000002102E0491C89B240080128FAD80846AB
:10220000704700B5FFF7D0FE012181400C480268FD
:102210008A43026000BD00B5FFF7C6FE074931F8EA
:10222000100000BD00B5FFF7BFFE044931F81000F3
:10223000C04380B200BD00000000FEBFF0000020DF
:10224000303802402DE9FE4F164683460C004FF011
:10225000010A02D0601E014212D00025574607FA3B
:1022600005F0204205D081B232465846FFF7EAFF1A
:10227000B8BB6D1CEDB2102DF1D30020BDE8FE8F70
:10228000DFF8F082D8F80000204234D108F10409C8
:10229000D9F8000020422ED1B4F5807F37D012DC6F
:1022A000102C32D008DC012C27D0022C27D0042C93
:1022B00027D0082C1FD126E0202C28D0402C26D057
:1022C000802C18D123E0B4F5805F22D00ADCB4F56D
:1022D000007F1CD0B4F5806F1BD0B4F5006F0AD11D
:1022E00017E008E0B4F5005F13D0B4F5804F10D0CC
:1022F000B4F5004F0DD00120C0E706250AE0072500
:1023000008E0082506E0092504E00A2502E0172573
:1023100000E02825012E51D0F6B300200021CDE9A0
:1023200000010B460A4621465846FFF78DFE20461F
:10233000FFF75EFFC7B25846FFF736FEC2B28E48BF
:10234000016841F4804101608C4827F00301084492
:10235000D0F80838B907090F4FF00F0C0CFA01FC40
:1023600023EA0C03C0F80838D0F808388A40134331
:10237000C0F80838D8F80010A143C8F80010D9F800
:102380000020A243C9F80020D8F800102143C8F863
:10239000001078480C3000E012E00168A1430160B1
:1023A000011F0A68A2430A60012E0BD016B1026811
:1023B0002243026008682043086006E00120ADE780
:1023C0000220ABE70168214301608DF808500A2024
:1023D0008DF809008DF80A708DF80BA002A8FDF7A2
:1023E00054FF4AE763490A6882430A60091D0A6884
:1023F00082430A605F490C310A6882430A60091F00
:102400000A6882430A60002070475A4801686FF3E7
:102410000F010160001D01686FF30F010160554855
:102420000C3001686FF30F010160001F01686FF34A
:102430000F0101604F48143001686FF30F01016014
:1024400070474C4810B514300168C90704D0012109
:102450000160084600F0B5F810BD464810B51430CC
:102460000168890704D502210160084600F0A9F837
:1024700010BD404810B514300168490704D5042147
:102480000160084600F09DF810BD3A4810B51430C0
:102490000168090704D508210160084600F091F899
:1024A00010BD344810B514300168C90604D5102198
:1024B0000160084600F085F810BD10B52D4C1434AD
:1024C0002068800603D52020206000F07AF820687C
:1024D000400603D54020206000F073F82068000615
:1024E00003D58020206000F06CF82068C00504D57A
:1024F0004FF48070206000F064F82068800504D5F7
:102500004FF40070206000F05CF810BD10B5194C5D
:1025100014342068400503D52015206000F051F8E0
:102520002068000504D54FF40060206000F049F8F1
:102530002068C00404D54FF48050206000F041F8BA
:102540002068800404D54FF40050206000F039F872
:102550002068400404D54FF48040206000F031F83A
:102560002068000404D54FF40040206000F029F8F2
:1025700010BD0000003C01404438024000300140E2
:1025800000F058F8FEF756FCFEF7E8FC4FF4E13295
:1025900001211D48FFF7B3FB20210F20FEF74EFE5F
:1025A00000210846FEF77EFD1848FEF7ADFE1748ED
:1025B000401FFEF7B8FE012291021548FFF742FEC8
:1025C000FEE770B5B0F5806F1CD1FEF760FF4006E6
:1025D00012D51048FEF73BFF0D4D20242C830D48EB
:1025E000FEF706FF094EB61FFEF768FF3070FF28A2
:1025F000FAD06C83FEF73CFDBDE8704070210720E7
:10260000FEF720BD70BD0000001001405E000020FC
:1026100000000240060100207047FEE7FEE7FEE7EB
:10262000FEE7704770477047704710B5FEF7D6FB5E
:1026300010BD0000444810B5016841F4700101600C
:102640004248016841F001010160404A002108321E
:10265000116002683E4B1A400260031D3D4A1A6039
:10266000026822F48022026038480C30016000F0D9
:1026700039F835494FF000608039086010BD70B5F9
:10268000324E002208363068334B344910F00C00CB
:1026900003D0042803D0082803D00B6018E030488A
:1026A00015E02A48001D0468C4F38055046804F04E
:1026B0003F042DB9B3FBF4F20368C3F388135A4304
:1026C0000068C0F30140401C4000B2FBF0F008601D
:1026D0003068224AC0F30310121D105C0A68C24021
:1026E0000A6070BD19484030016841F080510160B6
:1026F0001C48016841F440410160144808300168F9
:10270000016001680160016841F480510160021FAD
:1027100015491160111F0A6842F080720A600A6848
:102720009201FCD5114A40F202711160016821F05A
:1027300003010160016841F0020101600168C1F319
:1027400081010229FAD1704788ED00E0003802408B
:10275000FFFFF6FE103000240024F4006400002087
:1027600040787D010070004010640107003C024089
:1027700070B5064600F056F8056806F10B0020F02B
:102780000704B4429CBF002070BD2B466A68BAB1F2
:102790001068A04210D304F1080188423CBF506881
:1027A000586007D35168101941601168091B016016
:1027B00058601460101D70BD13465268002AE7D19E
:1027C0002146284600F036F80028DED170BD70B5ED
:1027D0000446051F00F026F80068002C14BF44686A
:1027E00070BD002C18BFAC423CBF20466468F8D3D3
:1027F00001680A18AA4218BF456003D12A68054635
:102800001144016028684119A1421CBF6C6070BD71
:102810006168696021680844286070BD704770472E
:102820007047000000487047300100207047704733
:102830007047704738B504460A4600206946AFF332
:102840000080002808BF38BD02460099204600F0ED
:102850003FF8012038BD012000F054B8F8B5AFF3BF
:102860000080054600200C46102000BF0646A8192F
:10287000A0420DD9324669460020AFF30080070020
:1028800008BF00F03FF80098A04218BF0546C419E1
:10289000FFF7C8FF05600746F01D20F00700461946
:1028A000284600F00AF8B44208BFF8BDA21B314622
:1028B0003868BDE8F84000F00BB800210160C0E9BD
:1028C0000110704710207047004870472801002011
:1028D000034640688C46002818BF88423CBF034628
:1028E0004068F8D318681844884207D00CF10300F8
:1028F00020F00700001D411A521A0146081D0A6007
:10290000FFF765BF10B500F039F8BDE8104000F0E2
:102910002FB870477546FFF7D7FFAE4605006946EA
:10292000534620F00700854618B020B5FDF796FC09
:10293000BDE820404FF000064FF000074FF00008C0
:102940004FF0000B21F00701AC46ACE8C009ACE841
:10295000C009ACE8C009ACE8C0098D46704710B5A5
:102960000446AFF300802046BDE81040FDF761BC8F
:10297000002801D000F02AB87047000010B50128E7
:1029800005D0002103A000F027F8012010BD09A107
:10299000F8E7000053494752544D454D3A204F75D2
:1029A00074206F662068656170206D656D6F727947
:1029B000000000003A2048656170206D656D6F72FF
:1029C0007920636F72727570746564000149182014
:1029D000ABBEFEE72600020070B505460C460A2095
:1029E00000E06D1C00F011F835B128780028F8D10E
:1029F00002E0641C00F009F814B120780028F8D136
:102A0000BDE870400A20AFF3008008B569468DF834
:102A100000000320ABBE08BD4FF04070E1EE100A8D
:102A200070470000442A00080000002078000000E1
:102A3000D4010008BC2A000878000020100700001C
:102A4000F001000800000000010203040102030479
:102A50000607080900000000000000000000000058
:102A600000000000000000000000000090000020B6
:102A70002000000000000000000A0000B00000205C
:102A80002000000000000000000A0000D00000202C
:102A90002000000000000000000A000000E7E7E757
:102AA000E7E77E7E7E7E7E0000E1F5050000000007
:0C2AB000000000000102030406070809F2
:040000050800019955
:00000001FF
