:020000040800F2
:100000006008002075020008013600080336000869
:10001000073600080B3600080F3600080000000005
:10002000000000000000000000000000133600087F
:100030001536000800000000173600081B360008BF
:100040008F0200088F0200088F0200088F0200084C
:100050008F0200088F020008B3320008CF32000878
:10006000EB32000807330008233300088F02000832
:100070008F0200088F0200088F0200088F0200081C
:100080008F0200088F0200088F0200088F0200080C
:100090008F0200088F0200088F0200083F3300081B
:1000A0008F0200088F0200088F0200088F020008EC
:1000B0008F0200088F0200088F0200088F020008DC
:1000C0008F0200088F0200088F0200088F020008CC
:1000D0008F0200086B2C0008852C0008A12C00085A
:1000E000BF3300088F0200088F0200088F0200084B
:1000F0008F0200088F0200088F0200088F0200089C
:100100008F0200088F0200088F0200088F0200088B
:10011000BD2C0008D92C00088F0200088F020008AF
:100120008F0200088F0200088F0200088F0200086B
:100130008F02000800000000000000008F0200088D
:100140008F0200088F0200088F0200088F0200084B
:100150008F0200088F0200088F020008F32C0008AD
:100160008F0200088F0200088F0200088F0200082B
:100170008F0200088F0200088F02000800000000B4
:10018000000000008F0200080000000000000000D6
:100190008F02000800000000000000008F0200082D
:1001A0000000000000000000000000008F020008B6
:1001B0008F0200088F0200088F0200088F020008DB
:1001C0008F02000800F002F800F045F80AA090E85D
:1001D000000C82448344AAF10107DA4501D100F002
:1001E0003AF8AFF2090EBAE80F0013F0010F18BF8A
:1001F000FB1A43F001031847783B0000983B0000CE
:10020000103A24BF78C878C1FAD8520724BF30C842
:1002100030C144BF04680C60704700000023002414
:1002200000250026103A28BF78C1FBD8520728BF06
:1002300030C148BF0B607047752903F0E18300208F
:1002400070471FB503F08EFD9DE8030003F034FCFA
:100250001FBD10B510BD03F003FD1146FFF7F1FF00
:1002600003F004F903F021FD03B4FFF7F2FF03BC30
:1002700003F052FD0948804709480047FEE7FEE7C2
:10028000FEE7FEE7FEE7FEE7FEE7FEE7FEE7FEE746
:1002900004480549054A064B7047000035370008F9
:1002A000C5010008600200206008002060040020F2
:1002B0006004002032490143324A1160704770B532
:1002C000002100230F22C4781CB32E4C246804F4B0
:1002D000E064C4F5E064C4F30721C1F10404E3B2AF
:1002E0000A4144789C40E1B28478144021430C07D1
:1002F000210E254C05786155047804F01F05012472
:10030000AC4005786D11AD0005F1E025C5F8004160
:1003100009E0047804F01F050124AC401B4D067869
:10032000761145F8264070BD194A0A400243154B24
:100330001B1F1A60704739B1124A121D126802431E
:10034000104B1B1D1A6006E00E4A121D12688243F4
:100350000C4B1B1D1A607047042808D14FF0E02198
:10036000096941F004014FF0E022116107E04FF00C
:10037000E021096921F004014FF0E022116170478A
:100380000000FA050CED00E000E400E080E100E090
:1003900080FFFF1FFE48006840F00100FC49086034
:1003A0000020FB4908310860F9480068F949084015
:1003B000F7490860F848091D0860F848F449843195
:1003C0000860F5481038091D0860F148006820F4FD
:1003D0008020EF4908600020ED490C310860EC49AD
:1003E0008C31086070470021E94A921C1170114657
:1003F0000870704710B501460022002300204A1102
:10040000012A02D1E24C236808E0022A03D1E04C21
:100410007034236802E0DE4C7434236801F01F025C
:10042000012494401C400CB1012000E0002010BDCC
:1004300038B5002000900024002500BF3120FFF7D0
:10044000D9FF05460098401C00900098B0F5A04FD9
:1004500001D0002DF2D03120FFF7CCFF08B10124EC
:1004600000E00024204638BD01460020C84A10683C
:1004700020F0F80040EAC10010607047C8490860E9
:1004800070470021C24A703211701170012802D0E9
:1004900004280AD104E00121BD4A7032117005E040
:1004A0000521BB4A7032117000E000BF00BF7047E9
:1004B000BC4908607047F0B5DDE9054541EA8216A0
:1004C0000127C7EB530746EA0746064346EA046698
:1004D00046EA0576AE4F3F1D3E60F0BDB049086666
:1004E000704770B5049C40EA81150126C6EB5206A0
:1004F00045EA064545EA036545EA0475A44E843697
:10050000356070BDA6498866704730B540EA8114F1
:100510000125C5EB520544EA054444EA03649C4DB9
:1005200088352C6030BD9E49086770479C49C86477
:10053000704702460020964B0833186820F0EC60A4
:1005400042EA01031843924B083318607047024691
:1005500000208F4B0833186820F0784042EA0103EE
:1005600018438B4B08331860704701460020884AB7
:100570000832106820F00300084310607047844878
:100580000830006800F00C00704701460020804AE7
:100590000832106820F0F0000843106070470146F0
:1005A00000207B4A0832106820F4E05008431060B5
:1005B000704701460020764A0832106820F46040F7
:1005C00040EAC100106070472DE9F041002100238E
:1005D00000240226002502220227DFF8B4C10CF114
:1005E000080CDCF800C00CF00C0131B1042909D072
:1005F00008290CD00C297CD148E0DFF8ACC1C0F848
:1006000000C089E0DFF8A4C1C0F800C084E0DFF8D2
:1006100080C10CF1040CDCF800C0CCF38055DFF88D
:1006200070C10CF1040CDCF800C00CF03F0275B195
:10063000DFF878C1BCFBF2FCDFF8548108F1040854
:10064000D8F80080C8F388180CFB08F40DE0DFF838
:1006500058C1BCFBF2FCDFF8388108F10408D8F877
:100660000080C8F388180CFB08F4DFF824C10CF1F3
:10067000040CDCF800C0CCF3014C0CF1010C4FEA87
:100680004C06B4FBF6FCC0F800C045E0DFF800C142
:100690000CF1040CDCF800C0CCF38055DFF8F0C09E
:1006A0000CF1040CDCF800C00CF03F0275B1DFF86F
:1006B000FCC0BCFBF2FCDFF8D88008F10408D8F8D5
:1006C0000080C8F388180CFB08F40DE0DFF8D8C0F0
:1006D000BCFBF2FCDFF8B88008F10408D8F8008011
:1006E000C8F388180CFB08F4DFF8A4C00CF1040C64
:1006F00000E00CE0DCF800C0CCF3027C0CF1010C53
:100700004FEA4C07B4FBF7FCC0F800C004E0DFF888
:1007100098C0C0F800C000BF00BFDFF874C00CF183
:10072000080CDCF800C00CF0F0010909DFF880C00B
:100730001CF80130D0F800C02CFA03FCC0F804C04B
:10074000DFF84CC00CF1080CDCF800C00CF4E051F0
:10075000890ADFF85CC01CF80130D0F804C02CFA1C
:1007600003FCC0F808C0DFF828C00CF1080CDCF866
:1007700000C00CF46041490BDFF834C01CF80130B4
:10078000D0F804C02CFA03FCC0F80CC0BDE8F0811E
:1007900000380240FFFFF6EA10300024003000204D
:1007A00000004742800E47420024F40000127A0005
:1007B00000000020002100F44072B2F5407F08D113
:1007C000F64A116821F4F811F54A02401143F34A40
:1007D0001160F24A68321268C0F30B031A43EF4B00
:1007E00068331A607047EF4908607047ED49091D8A
:1007F0000860704760B9E94A8432126822F0C0622A
:10080000E64B84331A601A4612680A431A600CE0F9
:10081000E24A8432126822F0C052E04B84331A60FC
:100820001A46126842EA81021A60704760B9DB4AD0
:100830008432126822F44012D84B84331A601A466C
:1008400012680A431A600CE0D44A8432126822F417
:100850004002D24B84331A601A46126842EA81027F
:100860001A60704701460020CC4A8432106820F09C
:100870001F004A1E1043C94A843210607047014667
:100880000020C64A8432106820F4F8504A1E40EA1C
:100890000220C24A84321060704701460020BF4ADD
:1008A0008432106820F44030084310607047BE491D
:1008B0000860704739B1B94A283212680243B74B11
:1008C00028331A6006E0B54A283212688243B34BD7
:1008D00028331A60704739B1B04A2C32126802438B
:1008E000AE4B2C331A6006E0AC4A2C3212688243BD
:1008F000AA4B2C331A60704739B1A84A30321268BB
:100900000243A64B30331A6006E0A44A3032126824
:100910008243A24B30331A60704739B19F4A383254
:10092000126802439D4B38331A6006E09B4A383206
:1009300012688243994B38331A60704739B1974A2D
:100940003C3212680243954B3C331A6006E0934AEE
:100950003C3212688243914B3C331A60704739B184
:100960008E4A0832126802438C4B08331A6006E044
:100970008A4A083212688243884B08331A607047EB
:1009800039B1864A0C3212680243844B0C331A6028
:1009900006E0824A0C3212688243804B0C331A60A4
:1009A000704739B17D4A1032126802437B4B1033D5
:1009B0001A6006E0794A103212688243774B10338E
:1009C0001A60704739B1754A183212680243734B86
:1009D00018331A6006E0714A1832126882436F4B6E
:1009E00018331A60704739B16C4A1C3212680243DE
:1009F0006A4B1C331A6006E0684A1C321268824354
:100A0000664B1C331A60704739B1644A4832126829
:100A10000243624B48331A6006E0604A483212686B
:100A200082435E4B48331A60704739B15B4A4C329F
:100A300012680243594B4C331A6006E0574A4C3255
:100A400012688243554B4C331A60704739B1534A90
:100A5000503212680243514B50331A6006E04F4A3D
:100A60005032126882434D4B50331A60704739B18F
:100A70004A4A583212680243484B58331A6006E01B
:100A8000464A583212688243444B58331A607047C2
:100A900039B1424A5C3212680243404B5C331A60FF
:100AA00006E03E4A5C32126882433C4B5C331A607B
:100AB0007047012808D139496831096841F00801B7
:100AC000364A6832116007E034496831096821F01C
:100AD0000801324A683211607047012808D12F4955
:100AE0008C31096841F000612C4A8C32116007E0BA
:100AF0002A498C31096821F00061284A8C32116042
:100B00007047012808D125498C31096841F080518E
:100B1000224A8C32116007E020498C31096821F0AB
:100B200080511E4A8C321160704739B11B4A88329D
:100B300012688243194B88331A6006E0174A8832DC
:100B400012680243154B88331A607047012808D198
:100B500012498C31096841F00051104A8C32116001
:100B600007E00E498C31096821F000510B4A8C32A4
:100B700011607047012808D108498C31096841F09B
:100B80008061064A8C32116007E004498C310968A3
:100B900021F08061014A8C321160704708380240B0
:100BA000FFFCFF0F3C0E4742E0114742194909681C
:100BB00021F44001174A1160114609680143116090
:100BC000704739B1134A873A12780243114B873B79
:100BD0001A7006E00F4A873A127882430D4B873B22
:100BE0001A7070470B482038006840F0807009493F
:100BF00020390860704701460020064A883A12688A
:100C00000A400AB1012000E00020704701498639FE
:100C1000087070479438024010B50446FB4884427F
:100C200008D101218014FFF7DEFE0021A014FFF798
:100C3000DAFE3CE0F648844208D101210014FFF7B7
:100C4000C1FE00212014FFF7BDFE30E0F1488442D0
:100C500008D10121C013FFF7B5FE0021E013FFF713
:100C6000B1FE24E0EC48844208D101214014FFF792
:100C7000BAFE00216014FFF7B6FE18E0E748844290
:100C800009D101210805FFF7AEFE00214FF48010C5
:100C9000FFF7A9FE0BE0E248844208D10121480594
:100CA000FFF7A1FE00214FF40010FFF79CFE10BDDE
:100CB00010B50022028802F441520B884C8823436D
:100CC0008C882343CC8823430C8923434C892343BA
:100CD0008C892343CC8923431A430280838B4FF2B0
:100CE000FF74234083830B8A038210BD2DE9F04FEC
:100CF0000025022300244FF00109002200260027CE
:100D000094469046B0F81CA04FF2400B0AEA0B0A3A
:100D1000A0F81CA04FF0020AA0F820A0858BD1F803
:100D200008A0BAF1020F01D100BF82E0B1F804A01F
:100D3000BAF1000F02D14FF0010901E04FF00209B2
:100D4000DFF8E0A2DAF800A00AF4000ABAF1000F16
:100D500009D0DFF8D0A2DAF800A02AF4000ADFF800
:100D6000C4B2CBF800A0DFF8BCA20AF17C0ADAF822
:100D700000A0CAF3881CDFF8ACA20AF17C0ADAF8FA
:100D800000A0CAF30278DFF89CA2AAF1040ADAF8FC
:100D900000A00AF03F07DFF88CA2AAF1040ADAF8F3
:100DA00000A00AF4800ABAF5800F08D1DFF878A213
:100DB000BAFBF7FA0AFB0CFABAFBF8F607E0DFF821
:100DC0006CA2BAFBF7FA0AFB0CFABAFBF8F6B1F818
:100DD00006A0BAF5007F0ED14FEA162A0AEB8A0A5E
:100DE0004FEA4A0AD1F808B0BAFBFBFA0AF1050A41
:100DF0001FFA8AF20FE04FEA491AB6FBFAFA0AEB39
:100E00008A0A4FEA4A0AD1F808B0BAFBFBFA0AF19B
:100E1000050A1FFA8AF24FF00A0AB2FBFAF202F050
:100E20000104A2EB040ACAF34F034FF6FF7A0AEA61
:100E30000424022B01DBFF2B01DD02230024B1F887
:100E400006A04AEA040A4AEA030AA0F820A0B1F878
:100E500004A0B1F80CB04AEA0B0AB1F802B04AEAB1
:100E60000B0AB1F800B04AEA0B0A4AF4006A4AEAEF
:100E700005058583BDE8F08F0021018041808180D8
:100E8000C180018141818181C18107210182704737
:100E90000021018041808180C18002218160002188
:100EA0008181704721B1028842F04002028004E053
:100EB00002884FF6BF731A400280704721B1828BBF
:100EC00042F48062828304E0828B4FF6FF331A4043
:100ED0008283704702884FF2FF731A4002800288B3
:100EE0000A4302807047B1F5804F04D1028842F472
:100EF0008042028004E002884BF6FF731A400280B1
:100F000070474FF6FF62914204D0028842F480722B
:100F1000028004E002884FF6FF631A4002807047A7
:100F200021B1828842F00402828004E082884FF678
:100F3000FB731A408280704721B1828842F0100210
:100F4000828004E082884FF6EF731A4082807047F7
:100F500030B500220023848B4FF240052C4084835F
:100F600002240484828B0C88B4F5007F01D00C88A5
:100F700014B94FF4807308E00C88B4F5407F03D0B7
:100F80000C88B4F5807F00D100238C888D892C4398
:100F90004D882C431C4344F400642243828330BDBB
:100FA0000146888970478181704721B1028842F4E7
:100FB0000052028004E002884DF6FF731A4002805E
:100FC0007047018841F4805101807047024600203B
:100FD000012901D0108B00E0908A70470146088AF1
:100FE00070471AB183880B43838002E083888B4368
:100FF0008380704730B5002400230C110125A540E3
:10100000ABB2AAB185881D43858014E00030014051
:1010100000380040003C00400034014000500140D6
:10102000005401400838024000127A000024F40005
:1010300085889D43858030BD0246002013890B4082
:101040000BB1012000E000207047CA4302817047C5
:10105000F0B50246002000240023002501F00F0710
:101060000126BE40B4B20B1101269E40B3B2968851
:1010700006EA03051689264016B10DB1012000E0ED
:101080000020F0BD10B5002201F00F040123A340A1
:101090009AB2D343038110BD10B50446FA48844286
:1010A00008D101211020FFF79EFC00211020FFF73E
:1010B0009AFC57E0F548844209D101214804FFF722
:1010C00081FC00214FF40030FFF77CFC4AE0F0483F
:1010D000844209D101218804FFF774FC00214FF4F8
:1010E0008020FFF76FFC3DE0EA48844209D10121EE
:1010F000C804FFF767FC00214FF40020FFF762FCF3
:1011000030E0E548844209D101210805FFF75AFC87
:1011100000214FF48010FFF755FC23E0DF488442A4
:1011200008D101212020FFF75EFC00212020FFF7DD
:101130005AFC17E0DA48844209D101218807FFF7F9
:1011400041FC00214FF08040FFF73CFC0AE0D5480D
:10115000844207D101214005FFF734FC00216005DE
:10116000FFF730FC10BD2DE9FF4705460E46002471
:10117000A14600BFA046B08900B100BF2C8A24F46C
:101180004054F08804432C82AC8941F20C608443C3
:10119000B08831890843718908430443AC81AC8A23
:1011A00024F44074B0890443AC826846FFF70CFA1B
:1011B000B548854202D0B948854202D1DDF80C908D
:1011C00001E0DDF80890A88900F4004040B109EB87
:1011D000C90000EB091031684900B0FBF1F707E0E6
:1011E00009EBC90000EB091031688900B0FBF1F789
:1011F0006420B7FBF0F004012009642101FB1078A2
:10120000A88900F4004040B1322000EBC800B0FBD8
:10121000F1F000F00700044308E0322000EB081072
:101220006421B0FBF1F000F00F0004432C81BDE815
:10123000FF874FF41651016000218180C180018138
:101240000C21418100218181704710B502460020A8
:10125000108A20F470600B884C8823438C882343C9
:10126000CC8823431843108210BD002101804180A7
:101270008180C180704721B1828942F4005282810D
:1012800004E082894DF6FF731A4082817047028B19
:1012900002F47F420283028B0A430283704721B12A
:1012A000828942F40042828103E08289C2F30E0205
:1012B0008281704721B1828A42F40062828204E016
:1012C000828A4FF2FF731A4082827047C1F308028C
:1012D0008280704701468888C0F308007047028A00
:1012E0004FF6F0731A400282028A0A430282704764
:1012F00021B1828942F00202828104E082894FF6A4
:10130000FD731A408281704782894FF2FF731A4041
:10131000828182890A4382817047028A4FF6DF7395
:101320001A400282028A0A430282704721B1028A6D
:1013300042F48042028204E0028A4BF6FF731A40B4
:1013400002827047818941F001018181704721B19A
:10135000828A42F00802828204E0828A4FF6F773A2
:101360001A4082827047028BD2B20283028B42EA19
:1013700001220283704721B1828A42F020028282D8
:1013800004E0828A4FF6DF731A408282704721B1EF
:10139000828A42F01002828204E0828A4FF6EF7362
:1013A0001A4082827047828A4FF6FB731A4082820B
:1013B000828A0A438282704721B1828A42F0020205
:1013C000828204E0828A4FF6FD731A40828270475F
:1013D0001AB1838A0B43838202E0838A8B43838220
:1013E0007047F0B50346002400260025002040F693
:1013F0006A17B94200D100BF1846C1F3421401F088
:101400001F06012707FA06F5012C01D10C3004E074
:10141000022C01D1103000E014301AB107682F43BC
:10142000076002E00768AF430760F0BD0246002096
:10143000B1F5007F00D100BF13880B400BB1012034
:1014400000E00020704701F40072B2F5007F00D187
:1014500000BFCA430280704770B5024600240023D3
:101460000025002040F66A16B14200D100BFC1F34A
:10147000421501F01F03012606FA03F3012D13D1D3
:101480009689334017E000000010014000440040FE
:1014900000480040004C0040005000400014014053
:1014A00000780040007C0040022D02D1168A3340B3
:1014B00001E0968A33400C12012606FA04F41688DD
:1014C000344013B10CB1012000E0002070BD10B514
:1014D0000022002340F66A14A14200D100BF0A1284
:1014E00001249440A3B2DC43048010BD10B58B48A6
:1014F0000068401C894908608948006820B1884814
:101500000068401E86490860AFF30080002438E080
:10151000844850F8240090B3824850F82400007B9F
:1015200068B3804850F82400806840B37D4850F884
:1015300024008068401E7B4951F824108860794857
:1015400050F824008068D0B9764A52F824205069B7
:10155000744A52F8242011698847724850F82400D0
:101560000168704850F8240081606E4850F82400EB
:10157000406820B900216B4850F824000173601CBA
:10158000C4B26848001F0078A042C1DC10BD30B56D
:10159000654800684FF47A72B0FBF2F1481EB0F172
:1015A000807F01D301201BE0481E4FF0E0225061F4
:1015B00050170F22002807DA13071D0E5B4B00F0AF
:1015C0000F04241F1D5503E013071C0E584B1C5419
:1015D00000BF00204FF0E022906107201061002042
:1015E00008B100BFFEE7504800685249B0FBF1F077
:1015F0005149086001205149087030BD4F480078BA
:1016000000B970474FF0E020006940F002004FF051
:10161000E021086100BFF4E74FF0E020006920F00E
:1016200002004FF0E021086170472DE9F0470546C0
:101630000E4617469846DDF820903A48001F00787D
:10164000052802DB0020BDE8F087182002F03AF9F7
:1016500004460CB90020F6E725602068A0606660AB
:101660002773C4F81080C4F814902E48001F017826
:101670000078401C2B4A121F1070101D40F82140AA
:101680002046E0E72DE9F0410646002407E0254822
:1016900050F82400B04200D106E0601CC4B22148DA
:1016A000001F0078A042F2DC00BF1E48001F007837
:1016B000A04201D1BDE8F0811A4850F8247000BF63
:1016C000EFF31080054672B607E01648611C50F82B
:1016D000211040F82410601CC4B21248001F00788A
:1016E000401EA042F1DC0F48001F0078401E0D494B
:1016F000091F087005B962B6384602F012F900BF3A
:10170000D8E7002101737047012101737047016818
:10171000816070474160704701607047140000208D
:1017200018000020AC0000209400002018ED00E01C
:1017300000E400E0C0C62D001C00002020000020B6
:101740001CB5032000210B460122CDE900104FF407
:1017500070411E4801F05EFB4FF470401B491A3186
:1017600008801CBD1CB50020022103460246CDE9BD
:1017700000100121164801F04DFB1CBD1448006902
:1017800000F0010080F0010030B91248007830B953
:10179000012010490870704700200E490870002091
:1017A000F9E70B48006900F0010080F0010038B152
:1017B0000848007838B100200649087001207047B9
:1017C0000120044908700020F9E70000000C0240E5
:1017D00000000240210000200246108800F0400076
:1017E00008B90020704700BF108900F003000028EE
:1017F000FAD0108900F080000028F5D1918100BF57
:10180000108900F003000028FAD0108900F0800051
:101810000028F5D19089C0B2E4E71CB50020012171
:1018200003460A46CDE900100903F94801F0F2FA2F
:101830000020012103460A46CDE90010C902F44800
:1018400001F0E8FA4FF48050F149088340104883D2
:101850001CBD70B504460D464FF48050EC494883DA
:1018600004F01F0040F02001EA48FFF7B5FF2946C9
:10187000E848FFF7B1FF4FF48050E549088370BD99
:1018800010B54FF40060E249488300BF4000488330
:10189000E221E048FFF7A0FF4FF48050DC490883C5
:1018A00000BF00BF70210720FFF7D3FF00BF0B214F
:1018B0000020FFF7CEFF4FF40060D549088310BD2C
:1018C00070B506460D460024D348C670857016B91B
:1018D00044F0080403E0022E01D144F02004032D5B
:1018E00002D144F0060408E0022D02D144F00404C1
:1018F00003E0012D01D144F0020421460620FFF748
:10190000A8FF70BD10B504467D2C09DCC2484078A4
:10191000A04205D0C048447021460520FFF799FF3A
:1019200010BD70B504460D4616464FF48050B849B8
:10193000488304F01F0040F02001B648FFF74CFF39
:1019400032462946B34800F027FD4FF48050B04995
:10195000088370BD1CB508210020FFF77AFF3F21E6
:101960000120FFF776FF03210220FFF772FF03211A
:101970000846FFF76EFF03210420FFF76AFF0221EC
:101980000520FFF766FF0E210620FFF762FF0E21FC
:101990000720FFF75EFF00210820FFF75AFF002114
:1019A0000920FFF756FFE7208DF800008DF80100B1
:1019B0008DF802008DF803008DF8040005226946B9
:1019C0000A20FFF7AEFFC2208DF800008DF801005D
:1019D0008DF802008DF803008DF804000522694699
:1019E0000B20FFF79EFFC3210C20FFF732FFC4211D
:1019F0000D20FFF72EFFC5210E20FFF72AFFC6217D
:101A00000F20FFF726FFE7208DF800008DF801007A
:101A10008DF802008DF803008DF804000522694658
:101A20001020FFF77EFF00211120FFF712FF002199
:101A30001220FFF70EFF00211320FFF70AFF0021FD
:101A40001420FFF706FF00211520FFF702FF0021F9
:101A50001620FFF7FEFE11211720FFF7FAFE0021E6
:101A60001C20FFF7F6FE00211D20FFF7F2FE1CBD33
:101A700070B505460C46FFF7D0FE0121654800F021
:101A800009FB202C00DD20240DB9012000E00020FE
:101A90006149487008460470032088700020C870AF
:101AA000FFF758FF2846FFF72DFF5B48017811200C
:101AB000FFF7CFFE584801781220FFF7CAFE5648BC
:101AC00001781320FFF7C5FE534801781420FFF773
:101AD000C0FE514801781520FFF7BBFE4E48017843
:101AE0001620FFF7B6FE4C4A9178D078FFF7E8FE53
:101AF00008210020FFF7ADFE3F210120FFF7A9FEDE
:101B00003F210220FFF7A5FE4F210420FFF7A1FE91
:101B100000211C20FFF79DFE00BF4FF480503C4980
:101B20004883E1213B48FFF757FE4FF48050384986
:101B3000088300BF00BF4883E2213648FFF74CFE10
:101B40004FF480503249088300BF00BF7021072046
:101B5000FFF77FFE00BFFFF793FE012070BD10B5B9
:101B600004464FF400602A494883052221460B2091
:101B7000FFF7D7FE4FF400602549088310BD10B56C
:101B80000446052221460A20FFF7CBFE0522214606
:101B90001020FFF7C6FE10BD70B504464FF480500C
:101BA0001B49488304F01F011A48FFF715FEFF2167
:101BB0001848FFF711FE05464FF48050144908837A
:101BC000284670BD2DE9F04107460C4616463846BA
:101BD000FFF7E2FF054626B10120A0402843C5B229
:101BE00002E00120A040854329463846FFF731FE38
:101BF000BDE8F08170B505460C462846FFF7CCFFDE
:101C000006460120A040304040B9002070BD0000D1
:101C100000000240003C0040220000200120F5E7C7
:101C200070B504460E4615464FF48050554948831A
:101C300004F01F015448FFF7CFFD2B46FF22314629
:101C4000514800F0D0FB4FF480504E49088370BDDE
:101C500010B500BF70210720FFF7FBFD00BF0A2170
:101C60000020FFF7F6FD10BD10B54FF400604549A8
:101C70004883002201211046FFF7A4FF10BD70B574
:101C80000446424805784FF400603E494883FFF718
:101C9000DFFF00BF4FF480503A494883E1213A48C2
:101CA000FFF79AFD4FF480503649088300BF488300
:101CB000A0213548FFF790FD2A462146324800F022
:101CC0006BFB4FF480502F4908834010088370BD90
:101CD00010B504464FF480502A49488361212A48B0
:101CE000FFF77AFD2948037822462146264800F06E
:101CF0002BFB4FF480502349088340210720FFF736
:101D0000A8FD10BD10B51720FFF746FF044604F0EC
:101D1000010010BD10B54FF480501A494883FF21CF
:101D20001948FFF759FD04464FF4805015490883C0
:101D3000204610BD10B5FFF7EDFF044604F040004B
:101D400008B1012010BDFFF7DDFF08B90120F9E758
:101D50000020F7E710B5FFF7DDFF044604F0200090
:101D600008B1012010BD04F0100008B10020F9E70F
:101D7000FF20F7E710B50820FFF70EFF00F00F0077
:101D800010BD000000000240003C00402200002086
:101D900070471CB5044654B90520032100231A4698
:101DA000CDE900104FF4E041FE4801F04BF8032C60
:101DB00003D10521FC48FFF7EBFF1CBD1CB5044611
:101DC00054B90520032100231A46CDE900104FF431
:101DD0006071F64801F036F8012C13D1052003217B
:101DE00000231A46CDE90010E102F04801F02AF87C
:101DF0000520032100231A46CDE90010C021EC483C
:101E000001F020F8032C03D10521EA48FFF7C0FFB9
:101E10001CBD1CB504464CB90520032100231A46FD
:101E2000CDE900106421E44801F00CF8012C0AD13E
:101E30000520032100231A46CDE900104FF4E041AC
:101E4000DD4800F0FFFF032C03D10521DB48FFF73D
:101E50009FFF1CBD1CB504464CB90620032100237E
:101E60001A46CDE900103821D54800F0EBFF012CCF
:101E70000AD10620032100231A46CDE900104FF4B1
:101E8000E051D04800F0DEFF032C03D10621CE48FC
:101E9000FFF77EFF1CBD1CB50446A4B90520032135
:101EA00000231A46CDE900104FF48061C44800F0C9
:101EB000C9FF0520032100231A46CDE900100C219B
:101EC000C04800F0BFFF012C0AD1052003210023E8
:101ED0001A46CDE900104FF46041B94800F0B2FF56
:101EE000022C09D10520032100231A46CDE9001058
:101EF0000D21B64800F0A6FF032C03D10521B448FC
:101F0000FFF746FF1CBD1CB504464CB90520032154
:101F100000231A46CDE90010E021AE4800F092FF00
:101F2000012C09D10520032100231A46CDE9001018
:101F30003821A34800F086FF032C03D10521A648D1
:101F4000FFF726FF1CBD2DE9F04385B004460E4681
:101F500015461F46DDE90C896846FEF78DFF9E4851
:101F600084420BD19D48006840F480509B49086032
:101F70003046FFF7C8FF0020ADF8040094488442C3
:101F80000DD19648001F006840F480409349091F16
:101F900008603046FFF77FFF0020ADF804008A4854
:101FA00084420DD18D48001F006840F400408B49E9
:101FB000091F08603046FFF74DFF0020ADF8040010
:101FC0007E4884420BD18548006840F40050834924
:101FD00008603046FFF71DFF0020ADF8040075488B
:101FE00084420BD17D48006840F480107B49086032
:101FF0003046FFF7E3FE0020ADF804006A48844253
:102000000BD17648006840F40010744908603046EF
:10201000FFF7BFFE0020ADF80400ADF80C70002003
:10202000ADF80000ADF80E90ADF802804FF40070EE
:10203000ADF80A002DB90020ADF80600ADF8080093
:1020400019E0012D06D10020ADF806000120ADF801
:10205000080010E0022D06D10220ADF80600002095
:10206000ADF8080007E0032D05D10220ADF8060009
:102070000120ADF80800208820F04000208069464B
:102080002046FEF715FE208840F04000208005B075
:10209000BDE8F0837CB504460D464F4884420AD122
:1020A00000204FF4827120230246CDE9001029461A
:1020B0002046FFF748FF464884420AD100204FF4EB
:1020C000827120230246CDE9001029462046FFF701
:1020D0003AFF3D4884420AD100204FF48271202308
:1020E0000246CDE9001029462046FFF72CFF334871
:1020F00084420AD100204FF4827120230246CDE9A8
:10210000001029462046FFF71EFF2A4884420AD1C4
:1021100000204FF4827120230246CDE900102946A9
:102120002046FFF710FF204884420AD100204FF4D8
:10213000827120230246CDE9001029462046FFF790
:1021400002FF7CBD7CB504460D46164622488442FB
:102150000AD100204FF4827120233246CDE90010CD
:1021600029462046FFF7EFFE194884420AD1002095
:102170004FF4827120233246CDE9001029462046D3
:10218000FFF7E1FE104884420AD100204FF482712B
:1021900020233246CDE9001029462046FFF7D3FE22
:1021A00006481DE00018024000540140001402409F
:1021B000001C024000500140001002400034014069
:1021C0000004024000080240003C004000200240A1
:1021D0000038004000000240003001404438024016
:1021E00084420AD100204FF4827120233246CDE987
:1021F000001029462046FFF7A6FECB4884420AD1AC
:1022000000204FF4827120233246CDE90010294688
:102210002046FFF798FEC54884420AD100204FF4BB
:10222000827120233246CDE9001029462046FFF76F
:102230008AFE7CBD2DE9FC47044689461746984630
:10224000DDE90A56BA48844206D13B464246494631
:10225000CDE90056FFF777FEB648844206D13B46EB
:1022600042464946CDE90056FFF76DFEB24884422A
:1022700006D13B4642464946CDE90056FFF763FE8C
:10228000AE48844206D13B4642464946CDE9005617
:10229000FFF759FEA448844206D13B4642464946D0
:1022A000CDE90056FFF74FFEA048844206D13B46D9
:1022B00042464946CDE90056FFF745FEBDE8FC879A
:1022C0002DE9FF4104460E461EB9382004B0BDE892
:1022D000F0816846FEF778F99548844208D097481F
:1022E000844205D09048844202D09048844201D173
:1022F000039F00E0029F00250AE0681C0121814045
:10230000B7FBF1F0B04201D8E800DFE7681CC5B2C6
:10231000082DF2DB3820D9E702461388C3F3C0202A
:10232000138823F040031380012904D1138843F458
:102330000063138003E0138823F400631380138881
:1023400043F040031380704730B50C46058805F014
:10235000400505B930BD00BF058905F00305002D16
:10236000FAD0058905F08005002DF5D100210FE098
:10237000655C858100BF058905F00305002DFAD055
:10238000058905F08005002DF5D185895554491C36
:102390009942EDD300BFDDE710B50B46048804F089
:1023A000400404B910BD00BF048904F00304002CEC
:1023B000FAD0048904F08004002CF5D100210EE04D
:1023C0005C5C848100BF048904F00304002CFAD013
:1023D000048904F08004002CF5D18489491C9142C1
:1023E000EED300BFDEE730B50C46058805F04005AA
:1023F00005B930BD00BF058905F00305002DFAD0F1
:10240000058905F08005002DF5D100210EE08281BF
:1024100000BF058905F00305002DFAD0058905F0F8
:102420008005002DF5D185896554491C9942EED36C
:1024300000BFDEE730B50C46058805F0400505B95C
:1024400030BD00BF058905F00305002DFAD00589D0
:1024500005F08005002DF5D1002111E034F8115070
:10246000858100BF058905F00305002DFAD0058997
:1024700005F08005002DF5D1858922F81150491C01
:102480009942EBD300BFDBE710B50B46048804F09C
:10249000400404B910BD00BF048904F00304002CFB
:1024A000FAD0048904F08004002CF5D100210FE05B
:1024B00033F81140848100BF048904F00304002C28
:1024C000FAD0048904F08004002CF5D18489491CD9
:1024D0009142EDD300BFDDE730B50C46058805F02D
:1024E000400505B930BD00BF058905F00305002D85
:1024F000FAD0058905F08005002DF5D100210FE007
:10250000828100BF058905F00305002DFAD00589F9
:1025100005F08005002DF5D1858924F81150491C5E
:102520009942EDD300BFDDE7005001400054014067
:102530000030014000380040003C004000340140C1
:102540000146FE4A914200D10020FD4A914200D14D
:102550000120FC4A914200D10220FB4A914200D165
:102560000420FA4A914200D10520F94A914200D153
:102570000620704770471CB504464CB9082003215B
:1025800001230022CDE90010C021F24800F05AFCDE
:10259000012C0AD10820032101230022CDE90010DB
:1025A0004FF48441EC4800F04DFC032C03D108218A
:1025B000E748FFF7DFFF1CBD1CB504469CB90820A7
:1025C000032101230022CDE900104102E14800F07F
:1025D00039FC0820032101230022CDE90010042149
:1025E000DE4800F02FFC032C03D10821D748FFF769
:1025F000C1FF1CBD1CB5044644B9082003210123BA
:102600000022CDE90010D64800F01CFC012C09D1B5
:102610000820032101230022CDE900108902CD48C2
:1026200000F010FC032C03D10821C748FFF7A2FFDC
:102630001CBD1CB504464CB9072003210123002210
:10264000CDE900108902C74800F0FCFB012C09D13C
:102650000720032101230022CDE900108902BD4893
:1026600000F0F0FB022C09D10720032101230022F6
:10267000CDE900100902B94800F0E4FB032C03D1B6
:102680000721B048FFF776FF1CBD1CB504464CB9C6
:102690000720032101230022CDE900100C21B048BE
:1026A00000F0D0FB012C09D10720032101230022D7
:1026B000CDE900106021A94800F0C4FB032C03D130
:1026C00007219F48FFF756FF1CBD1CB504464CB9B7
:1026D0000720032101230022CDE900104902A04870
:1026E00000F0B0FB012C09D10720032101230022B7
:1026F000CDE90010C0219B4800F0A4FB032C03D1BE
:1027000007218E48FFF736FF1CBD01468B4A9142D8
:1027100000D195488A4A914200D19448894A914211
:1027200000D19348884A914200D19248874A914209
:1027300000D19148864A914200D1904870472DE9D6
:10274000F04F87B004460D4616461F46DDE911AB33
:10275000DDF840902046FFF7D8FF80460396774883
:1027600084420BD18648006840F01000844908601C
:102770002846FFF7AAFF25208DF8080070488442FC
:102780000DD17F48001F006840F400307C49091FCC
:1027900008602846FFF779FF26208DF80800694871
:1027A00084420DD17648001F006840F480207449AF
:1027B000091F08602846FFF73CFF27208DF8080016
:1027C000614884420DD16E48001F006840F400202B
:1027D0006B49091F08602846FFF70CFF34208DF86D
:1027E00008005A4884420DD16548001F006840F433
:1027F00080106349091F08602846FFF7DDFE352079
:102800008DF80800524884420BD15D48006840F0C2
:1028100020005B4908602846FFF7ADFE47208DF891
:1028200008002046FEF738FC01208DF80B0006203A
:102830008DF809002046FFF783FE8DF80A0002A8F4
:10284000FDF73DFDADF818701FFA89F0ADF81600E0
:102850001FFA8AF0ADF814001FFA8BF0ADF81200E1
:10286000139880B2ADF81000002088F80C0000BF6B
:1028700040F6FF70019000BF0198411E01910028B1
:10288000FAD100BF03A92046FEF76DFCA08940F0F5
:102890002000A081012088F80C00A08940F400509D
:1028A000A08107B0BDE8F08F7FB504460D461646FF
:1028B000224884420BD100200C23CDE90030029045
:1028C00003463246294603902046FFF738FF1C484E
:1028D00084420BD100200C23CDE900300290034646
:1028E0003246294603902046FFF729FF15488442C7
:1028F0000BD100200C23CDE9003002900346324674
:10290000294603902046FFF71AFF0F4884420BD157
:1029100000200C23CDE900300290034632462946C0
:1029200003902046FFF70BFF0848844230D1002077
:102930000C23CDE900300290034623E00010014053
:102940000044004000480040004C0040005000405F
:10295000001401400008024000180240000C024030
:10296000000002400004024028000020380000203F
:102970004800002058000020680000207800002057
:10298000443802403246294603902046FFF7D7FEDE
:10299000DF4884420BD100200C23CDE900300290A7
:1029A00003463246294603902046FFF7C8FE7FBD06
:1029B0002DE9FF4104460D4616461F46D548844280
:1029C0000BD100200C23CDE9003002903B4632466B
:1029D000294603902046FFF7B2FECF4884420BD130
:1029E00000200C23CDE9003002903B4632462946B8
:1029F00003902046FFF7A3FEC84884420BD1002075
:102A00000C23CDE9003002903B4632462946039024
:102A10002046FFF794FEC24884420BD100200C23CD
:102A2000CDE9003002903B463246294603902046CD
:102A3000FFF785FEBB4884420BD100200C23CDE973
:102A4000003002903B463246294603902046FFF76D
:102A500076FEAF4884420BD100200C23CDE9003034
:102A600002903B463246294603902046FFF767FE18
:102A7000BDE8FF8130B5044600252046FFF745FE3E
:102A80000346D888002803DC18895989884211D068
:102A900058899988884201D100205881598918683D
:102AA000405C45B25889401C5881D88810B1D888FC
:102AB000401ED880E8B230BDF0B507460D46384616
:102AC000FFF723FE0346DE885C890DE09888A0426C
:102AD00000D100241868005DA84201D10120F0BD9A
:102AE000601C84B2701E86B2002EEFDC0020F6E778
:102AF0002DE9F04180460E46174600244046FFF778
:102B000004FE0546E88840B1697B4046FFF7D4FFE4
:102B100030B9E888A988884202D00020BDE8F08159
:102B20000AE04046FFF7A6FF3055305D697B8842DA
:102B300000D104E0601C84B2781EA042F1DC00BF2A
:102B40000021601C80B2044631542046E6E710B5EF
:102B500004462046FFF7D9FD0346D88828B91889CE
:102B60005989884201D1012010BD0020FCE710B531
:102B700004462046FFF7C9FD0346D8889988884255
:102B800001D1012010BD0020FCE710B5044620460D
:102B9000FFF7BBFD03460020D8801881588110BD87
:102BA00030B504460B462046FFF7AFFD05466B7374
:102BB00030BD30B503460C461846FFF7A6FD054666
:102BC000287B00B930BD12E000BF00BF188800F0BC
:102BD00080000028FAD000BF14F8010B988000BFD5
:102BE00000BF188800F080000028FAD000BF2078CD
:102BF0000028E9D100BFE5E7F0B503460D461646CB
:102C00001846FFF782FD0746387B00B9F0BD002467
:102C100013E000BF00BF188800F080000028FAD041
:102C200000BF285D988000BF00BF188800F08000BA
:102C30000028FAD000BF601C84B2B442E9DB00BFB8
:102C4000E4E7C28883889A420EDA028983889A422E
:102C500001D10022028103890268D1540289521CE9
:102C60000281C288521CC280704700B52948008882
:102C700000F0200028B127488088C1B22A48FFF719
:102C8000E0FF00BD00B52448008800F0200030B10E
:102C90002148001D0088C1B22448FFF7D2FF00BDC3
:102CA00000B51E48008800F0200030B11B48001D10
:102CB0000088C1B21E48FFF7C4FF00BD00B5184828
:102CC000008800F0200030B11548001D0088C1B216
:102CD0001848FFF7B6FF00BD00B51248008800F0A5
:102CE000200028B10F488088C1B21348FFF7A9FF20
:102CF00000BD00B50648008800F0200030B104484F
:102D0000001D0088C1B20D48FFF79BFF00BD000009
:102D10000014014000100140004400400048004001
:102D2000004C0040005000402800002038000020E7
:102D30004800002058000020680000207800002093
:102D400001464FF40030081AC0F38F2070472DE978
:102D5000F04304460E461546DDE907892046FFF795
:102D6000EFFFC7B2002243E001209040304000B99D
:102D70003CE0B14830F81700012191400843AE49CA
:102D800021F81700E0684FEA420C032101FA0CF128
:102D90008843510008FA01F10843E06020684FEAD7
:102DA000420C032101FA0CF18843510005FA01F1AC
:102DB00008432060012D01D0022D16D16168012049
:102DC000904080B221EA000003FA02F189B2084380
:102DD0006060A0684FEA420C032101FA0CF18843BD
:102DE000510009FA01F10843A06000BF501CC2B2B3
:102DF000102AB9DBBDE8F08300B502461046FFF7A4
:102E00009FFF012101FA00F08C49096808438B49B2
:102E1000086000BD2DE9FC4305460C4616461F46DA
:102E2000DDE909890CB9BDE8FC832846FFF7E4FF1A
:102E30003B46324621462846CDE90089FFF787FF09
:102E400000BFF0E72DE9FC4705460E4617469846B9
:102E5000DDE90A9A0EB9BDE8FC872846FFF7CCFFEA
:102E600000241AE00120A040304000B914E0E1083D
:102E700005F1200050F821006107CA0E0F21914092
:102E800088436107C90E0AFA01F10843E20805F117
:102E9000200141F8220000BF641C102CE2D33B4605
:102EA000022231462846CDE90089FFF750FF00BFD6
:102EB000D1E770B503460C461846FFF741FFC5B28F
:102EC000002214E001209040204070B118685600A4
:102ED0000321B14008431860574830F8150001211C
:102EE00091408843544921F81500501CC2B2102A61
:102EF000E8DB70BD30B5024600200BE001238340C3
:102F00000B402BB1136845000324AC40A34313606E
:102F1000431CD8B21028F1DB30BD30B5024600208A
:102F20000FE0012383400B404BB11368450003249D
:102F3000AC40A34345000124AC4023431360431C31
:102F4000D8B21028EDDB30BD30B5024600200BE0D2
:102F5000012383400B402BB1136845000324AC4090
:102F600023431360431CD8B21028F1DB30BD30B5C9
:102F70000246002011E0012383400B4003B90AE020
:102F8000136845000324AC40A34345000224AC4031
:102F90002343136000BF431CD8B21028EBDB30BDC5
:102FA00070B50346002011E0012484400C4004B9B0
:102FB0000AE0DC6846000325B540AC43450002FA50
:102FC00005F52C43DC6000BF441CE0B21028EBDBAD
:102FD00070BD41F48032C261C161C261C369C3691D
:102FE00070470146002002E0421C90B249100129BE
:102FF000FADC704700B502461046FFF7A1FE01213A
:1030000081400E48006888430C49086000BD00B547
:1030100002461046FFF794FE074931F8100000BD44
:1030200000B502461046FFF78BFE034931F8100049
:10303000C04380B200BD0000800100203038024053
:103040002DE9FE4F83460C46174614B1601E204002
:10305000E0B14FF0000914E0012000FA09F020402F
:1030600058B1012000FA09F081B23A465846FFF7FC
:10307000E7FF10B10120BDE8FE8F09F1010000F06B
:10308000FF09B9F1100FE7DB0020F4E7F44800680E
:10309000204020B9F248001D0068204008B10120FE
:1030A000E9E7B4F5807F38D012DC102C30D008DC92
:1030B000012C25D0022C25D0042C25D0082C36D16B
:1030C00024E0202C26D0402C25D0802C2FD123E0AA
:1030D000B4F5805F26D009DCB4F5007F1ED0B4F5CE
:1030E000806F1DD0B4F5006F21D11AE0B4F5005FF8
:1030F00019D0B4F5804F17D0B4F5004F17D114E0B4
:10310000062616E0072614E0082612E0092610E03D
:103110000A260EE000BF00BF00BF00BF172608E070
:1031200000BF00BF00BF00BF00BF282601E0012094
:10313000A1E700BF012F01D1B84605E017B94FF054
:10314000020801E04FF00008002003460246214635
:10315000CDE900805846FFF75DFE2046FFF741FFAE
:10316000C5B25846FFF7ECFD00F0FF0ABD48006805
:1031700040F48040BB490860BB48A91050F82100CA
:10318000A9070A0F0F2191408843B749AA1041F8B7
:1031900022000846A91050F82100A907090F0AFAD1
:1031A00001F10843B049AA1041F82200AC48006878
:1031B000A043AB490860081D0068A043091D0860D2
:1031C000081F00682043091F0860A5480C300068EC
:1031D000A043A3490C310860081F0068A043091FE1
:1031E0000860012F05D1081D00682043091D0860F3
:1031F00014E03FB99A4808300068204398490831E4
:1032000008600BE096480C300068204394490C316C
:103210000860081F00682043091F08608DF80860D7
:103220000A208DF809008DF80A5001208DF80B0056
:1032300002A8FDF744F800201DE701468848006811
:103240008843874A1060101D00688843121D106073
:1032500083480C3000688843814A0C321060101F8C
:1032600000688843121F1060002070477C48006887
:103270006FF30F007A490860081D00686FF30F00B4
:10328000091D086076480C3000686FF30F00744920
:103290000C310860081F00686FF30F00091F0860F9
:1032A0006F48143000686FF30F006D4914310860E7
:1032B000704710B56A481430006800F0010028B16A
:1032C000012067491431086000F035F910BD10B5D0
:1032D00063481430006800F0020028B10220604901
:1032E0001431086000F027F910BD10B55C481430A7
:1032F000006800F0040028B1042059491431086026
:1033000000F019F910BD10B555481430006800F0F0
:10331000080028B1082052491431086000F00BF968
:1033200010BD10B54E481430006800F0100028B1F0
:1033300010204B491431086000F0FDF810BD10B5A5
:1033400047481430006800F0200028B1202044498C
:103350001431086000F0EFF841481430006800F0C4
:10336000400028B140203E491431086000F0E3F8E5
:103370003B481430006800F0800028B180203849B4
:103380001431086000F0D7F835481430006800F4B4
:10339000807030B14FF4807031491431086000F012
:1033A000CAF82F481430006800F4007030B14FF4B0
:1033B00000702B491431086000F0BDF810BD10B545
:1033C00027481430006800F4806030B14FF480600A
:1033D00023491431086000F0AEF821481430006829
:1033E00000F4006030B14FF400601D4914310860F2
:1033F00000F0A1F81A481430006800F4805030B191
:103400004FF4805016491431086000F094F81448C5
:103410001430006800F4005030B14FF400501049EF
:103420001431086000F087F80D481430006800F48B
:10343000804030B14FF4804009491431086000F0F9
:103440007AF807481430006800F4004030B14FF4B7
:10345000004003491431086000F06DF810BD000011
:10346000003C0140443802400838014000F062F955
:10347000FEF78DF8FEF764F94FF4E132002145487C
:10348000FFF712FA20210F20FEF7F2FA002108467A
:10349000FEF716FA4048FEF762FB4048FEF76FFB66
:1034A000012291023E48FFF7CBFD40F2D1703D4929
:1034B00008603FE03B480068B0F5FA6F17D93AA1C1
:1034C000414800F055FA41A13248FFF772FB002055
:1034D000344908603C48FEF7D2FB4FF480503E4927
:1034E0000880FF203D49087000203D4908703B4896
:1034F0000078FF281ED03A480078D8B929480268D9
:1035000038A13A4800F034FA38492248FFF751FB15
:1035100032480078012803D135A11E48FFF749FB46
:103520002E48007818B933A11A48FFF742FB012052
:103530002B490870BEE770B50546B5F5806F28D1F8
:10354000FEF7E8FB044604F0200040B101202349C7
:10355000087000032049891C0880FEF791F904F0E7
:10356000100048B100201D4908704FF480501A49DE
:10357000891C0880FEF784F904F0400010B11F4850
:10358000FEF7A6FB00BF70210720FEF762F900BF1F
:1035900000BF70BD00440040880000208D00002066
:1035A0000000024014000020616263646566676881
:1035B000696A6B6C6D6E6F737A784142434445461D
:1035C00043424441000000009601002070696E678C
:1035D000696E673A20000000180C0240920000203B
:1035E000930000202575206D733A2000D60100203D
:1035F0004F4B0A004C4F53540A000000B601002004
:10360000704700BFFEE700BFFEE700BFFEE700BF58
:10361000FEE7704770477047704710B5FDF766FFCB
:1036200010BD00000CB50020019000909A48006881
:1036300040F480309849086000BF9748006800F463
:10364000003000900198401C0190009818B9019832
:10365000B0F5A04FF1D19048006800F4003010B1EF
:103660000120009001E0002000900098012860D126
:1036700089484030006840F08050874940310860F8
:103680008648006840F44040844908608248083019
:1036900000688149083108600846006840F400402D
:1036A00008600846006840F4A05008607C48091F84
:1036B0000860081F006840F08070091F086000BFA4
:1036C0007548006800F000700028F9D07348006861
:1036D00040F480307149086000BF7048406800F4D1
:1036E00080300028F9D06D48006840F400306B4904
:1036F000086000BF6948406800F400300028F9D035
:1037000040F205706749086063480830006820F09F
:1037100003006149083108600846006840F0020073
:10372000086000BF5C480830006800F00C00082802
:10373000F8D10CBD10B55C48006840F470005A49DF
:1037400008605548006840F00100534908600020B7
:1037500051490831086050480068544908404E49B2
:1037600008605348091D0860081F006820F4802085
:10377000091F0860002048490C310860FFF752FF1C
:103780004FF0006048498039086010BDF0B5002155
:10379000002202240023022002253F4E083636680C
:1037A00006F00C0131B1042908D008290AD00C29EF
:1037B00060D133E03F4E404F3E605FE03F4E3E4FB2
:1037C0003E605BE0344E361D3668C6F38053324EA1
:1037D000361D366806F03F0053B1384EB6FBF0F6A2
:1037E0002D4F3F1D3F68C7F3881706FB07F209E01E
:1037F000304EB6FBF0F6284F3F1D3F68C7F38817E1
:1038000006FB07F2244E361D3668C6F30146761CC9
:103810007400B2FBF4F6284F3E602FE01E4E361DBA
:103820003668C6F380531C4E361D366806F03F00DE
:1038300053B1224EB6FBF0F6174F3F1D3F68C7F35A
:10384000881706FB07F209E01A4EB6FBF0F6124F96
:103850003F1D3F68C7F3881706FB07F20E4E361D63
:103860003668C6F30276761C7500B2FBF5F6124F89
:103870003E6003E00F4E104F3E6000BF00BF064E9B
:1038800008363668C6F303160D4FB95D0A4E366822
:10389000CE40094F3E60F0BD00380240007000404D
:1038A000085A4077003C024088ED00E0FFFFF6FE3A
:1038B000103000240024F4009400002000127A004C
:1038C0009800002070B5064600F0DAF8056806F1A9
:1038D0000B0020F00704B4429CBF002070BD2B46B3
:1038E0006A68BAB11068A04210D304F10801884296
:1038F0003CBF5068586007D3516810194160116887
:10390000091B016058601460101D70BD1346526899
:10391000002AE7D12146284600F0BAF80028DED177
:1039200070BD70B50446051F00F0AAF80068002CB1
:1039300014BF446870BD002C18BFAC423CBF204689
:103940006468F8D301680A18AA4218BF456003D119
:103950002A6805461144016028684119A1421CBF2C
:103960006C6070BD6168696021680844286070BD42
:103970000FB41CB5074B06AA7B4469460090059816
:1039800000F02FF90020694600F03EF91CBC5DF8FC
:1039900014FB00008D0200002DE9F0410E460446A4
:1039A000002020622046E168884730B3252805D0F2
:1039B000D4E901219047206A401CF2E7E1682046E3
:1039C00000278847050018D0A5F14100192802D822
:1039D00020354FF400673246294620462760FCF721
:1039E0002BFC40B1012804D0F61D26F0070608364E
:1039F000D8E7361DD6E72846DAE7206ABDE8F08129
:103A00002DE9F0410646002410687529314616A5B7
:103A100010D0AFF30080002802DA404213A507E07F
:103A200031688A0701D512A502E0490704D511A51E
:103A3000012401E0AFF3008000210A2206F12407EF
:103A400009E0B0FBF2FCB0FBF2F302FB1C003030EB
:103A500078541846491C0028F3D123462A4630469C
:103A6000BDE8F04100F05EB8000000002D0000004D
:103A70002B000000200000007047704770470000D6
:103A80000048704708020020704770477047704731
:103A900038B504460A4600206946AFF30080002886
:103AA00008BF38BD02460099204600F0B7F8012053
:103AB00038BD012000F0CCB8F8B5AFF30080054662
:103AC00000200C46102000BF0646A819A0420DD9C0
:103AD000324669460020AFF30080070008BF00F0BF
:103AE000B7F80098A04218BF0546C419FFF7C8FFF1
:103AF00005600746F01D20F007004619284600F033
:103B00000AF8B44208BFF8BDA21B31463868BDE8C8
:103B1000F84000F083B800210160C0E9011070474F
:103B2000102070472DE9F0470D469946924604460D
:103B300000F124080168880604D5E06921F010012D
:103B4000216000E00120A84201DD471B00E00027C2
:103B5000A1697A1902EB0900081AA0612078C00651
:103B600002D42046AFF30080002608E0D4E901210A
:103B70001AF806009047206A401C761C20624E45C9
:103B8000F4DB2078C0060AD52046AFF3008006E0BB
:103B9000D4E9012130209047206A401C2062381E61
:103BA000A7F10107F4DC07E0D4E9012118F80500CA
:103BB0009047206A401C2062281EA5F10105F3DC15
:103BC0002046AFF300802078000602D50220BDE831
:103BD000F0870120FBE7000001694A1C02610878B8
:103BE000704700B58FB0CDE901310021059105493D
:103BF0007944CDE9031011466846FFF7CDFE0FB0BA
:103C000000BD0000E5FFFFFF0A6802F8010B0A6033
:103C100070470000004870470002002003464068DB
:103C20008C46002818BF88423CBF03464068F8D342
:103C300018681844884207D00CF1030020F00700F0
:103C4000001D411A521A0146081D0A60FFF769BE9D
:103C500010B500F039F8BDE8104000F02FB87047FB
:103C60007546FFF7D7FFAE4605006946534620F07C
:103C70000700854618B020B5FCF70AFBBDE82040D8
:103C80004FF000064FF000074FF000084FF0000B18
:103C900021F00701AC46ACE8C009ACE8C009ACE8CB
:103CA000C009ACE8C0098D46704710B50446AFF3B3
:103CB00000802046BDE81040FCF7D6BA002801D0AD
:103CC00000F02AB87047000010B5012805D0002187
:103CD00003A000F027F8012010BD09A1F8E70000BB
:103CE00053494752544D454D3A204F7574206F66E5
:103CF0002068656170206D656D6F7279000000004D
:103D00003A2048656170206D656D6F727920636F30
:103D1000727275707465640001491820ABBEFEE7CD
:103D20002600020070B505460C460A2000E06D1C16
:103D300000F011F835B128780028F8D102E0641CB1
:103D400000F009F814B120780028F8D1BDE87040DF
:103D50000A20AFF3008008B569468DF80000032003
:103D6000ABBE08BD4FF04070E1EE100A7047000096
:103D7000903D000800000020A8000000000200089C
:103D8000383E0008A8000020B80700001C02000808
:103D900000000000010203040102030406070809F1
:103DA0000000000000000000000000000000000013
:103DB0000000000000000000C00000202000000003
:103DC00000000000000A0000E000002020000000C9
:103DD00000000000000A0000000100202000000098
:103DE00000000000000A0000200100202000000068
:103DF00000000000000A0000400100202000000038
:103E000000000000000A0000600100202000000007
:103E100000000000000A0000E7E7E7E7E77E7E7E9B
:103E20007E7E00000095BA0A00000000000000003D
:083E3000010203040607080962
:04000005080001C529
:00000001FF
